{
  "_format": "hh-sol-artifact-1",
  "contractName": "SponsorshipNFT",
  "sourceName": "src/contracts/SponsorshipNFT.sol",
  "abi": [
    {
      "inputs": [
        {
          "internalType": "address",
          "name": "eventContract",
          "type": "address"
        }
      ],
      "stateMutability": "nonpayable",
      "type": "constructor"
    },
    {
      "inputs": [
        {
          "internalType": "address",
          "name": "sender",
          "type": "address"
        },
        {
          "internalType": "uint256",
          "name": "balance",
          "type": "uint256"
        },
        {
          "internalType": "uint256",
          "name": "needed",
          "type": "uint256"
        },
        {
          "internalType": "uint256",
          "name": "tokenId",
          "type": "uint256"
        }
      ],
      "name": "ERC1155InsufficientBalance",
      "type": "error"
    },
    {
      "inputs": [
        {
          "internalType": "address",
          "name": "approver",
          "type": "address"
        }
      ],
      "name": "ERC1155InvalidApprover",
      "type": "error"
    },
    {
      "inputs": [
        {
          "internalType": "uint256",
          "name": "idsLength",
          "type": "uint256"
        },
        {
          "internalType": "uint256",
          "name": "valuesLength",
          "type": "uint256"
        }
      ],
      "name": "ERC1155InvalidArrayLength",
      "type": "error"
    },
    {
      "inputs": [
        {
          "internalType": "address",
          "name": "operator",
          "type": "address"
        }
      ],
      "name": "ERC1155InvalidOperator",
      "type": "error"
    },
    {
      "inputs": [
        {
          "internalType": "address",
          "name": "receiver",
          "type": "address"
        }
      ],
      "name": "ERC1155InvalidReceiver",
      "type": "error"
    },
    {
      "inputs": [
        {
          "internalType": "address",
          "name": "sender",
          "type": "address"
        }
      ],
      "name": "ERC1155InvalidSender",
      "type": "error"
    },
    {
      "inputs": [
        {
          "internalType": "address",
          "name": "operator",
          "type": "address"
        },
        {
          "internalType": "address",
          "name": "owner",
          "type": "address"
        }
      ],
      "name": "ERC1155MissingApprovalForAll",
      "type": "error"
    },
    {
      "inputs": [
        {
          "internalType": "address",
          "name": "owner",
          "type": "address"
        }
      ],
      "name": "OwnableInvalidOwner",
      "type": "error"
    },
    {
      "inputs": [
        {
          "internalType": "address",
          "name": "account",
          "type": "address"
        }
      ],
      "name": "OwnableUnauthorizedAccount",
      "type": "error"
    },
    {
      "anonymous": false,
      "inputs": [
        {
          "indexed": true,
          "internalType": "address",
          "name": "account",
          "type": "address"
        },
        {
          "indexed": true,
          "internalType": "address",
          "name": "operator",
          "type": "address"
        },
        {
          "indexed": false,
          "internalType": "bool",
          "name": "approved",
          "type": "bool"
        }
      ],
      "name": "ApprovalForAll",
      "type": "event"
    },
    {
      "anonymous": false,
      "inputs": [
        {
          "indexed": true,
          "internalType": "address",
          "name": "previousOwner",
          "type": "address"
        },
        {
          "indexed": true,
          "internalType": "address",
          "name": "newOwner",
          "type": "address"
        }
      ],
      "name": "OwnershipTransferred",
      "type": "event"
    },
    {
      "anonymous": false,
      "inputs": [
        {
          "indexed": true,
          "internalType": "address",
          "name": "to",
          "type": "address"
        },
        {
          "indexed": true,
          "internalType": "uint256",
          "name": "id",
          "type": "uint256"
        },
        {
          "indexed": false,
          "internalType": "uint256",
          "name": "amount",
          "type": "uint256"
        }
      ],
      "name": "SponsorshipMinted",
      "type": "event"
    },
    {
      "anonymous": false,
      "inputs": [
        {
          "indexed": true,
          "internalType": "address",
          "name": "operator",
          "type": "address"
        },
        {
          "indexed": true,
          "internalType": "address",
          "name": "from",
          "type": "address"
        },
        {
          "indexed": true,
          "internalType": "address",
          "name": "to",
          "type": "address"
        },
        {
          "indexed": false,
          "internalType": "uint256[]",
          "name": "ids",
          "type": "uint256[]"
        },
        {
          "indexed": false,
          "internalType": "uint256[]",
          "name": "values",
          "type": "uint256[]"
        }
      ],
      "name": "TransferBatch",
      "type": "event"
    },
    {
      "anonymous": false,
      "inputs": [
        {
          "indexed": true,
          "internalType": "address",
          "name": "operator",
          "type": "address"
        },
        {
          "indexed": true,
          "internalType": "address",
          "name": "from",
          "type": "address"
        },
        {
          "indexed": true,
          "internalType": "address",
          "name": "to",
          "type": "address"
        },
        {
          "indexed": false,
          "internalType": "uint256",
          "name": "id",
          "type": "uint256"
        },
        {
          "indexed": false,
          "internalType": "uint256",
          "name": "value",
          "type": "uint256"
        }
      ],
      "name": "TransferSingle",
      "type": "event"
    },
    {
      "anonymous": false,
      "inputs": [
        {
          "indexed": false,
          "internalType": "string",
          "name": "value",
          "type": "string"
        },
        {
          "indexed": true,
          "internalType": "uint256",
          "name": "id",
          "type": "uint256"
        }
      ],
      "name": "URI",
      "type": "event"
    },
    {
      "anonymous": false,
      "inputs": [
        {
          "indexed": true,
          "internalType": "uint256",
          "name": "id",
          "type": "uint256"
        },
        {
          "indexed": false,
          "internalType": "string",
          "name": "uri",
          "type": "string"
        }
      ],
      "name": "URIUpdated",
      "type": "event"
    },
    {
      "inputs": [
        {
          "internalType": "address",
          "name": "account",
          "type": "address"
        },
        {
          "internalType": "uint256",
          "name": "id",
          "type": "uint256"
        }
      ],
      "name": "balanceOf",
      "outputs": [
        {
          "internalType": "uint256",
          "name": "",
          "type": "uint256"
        }
      ],
      "stateMutability": "view",
      "type": "function"
    },
    {
      "inputs": [
        {
          "internalType": "address[]",
          "name": "accounts",
          "type": "address[]"
        },
        {
          "internalType": "uint256[]",
          "name": "ids",
          "type": "uint256[]"
        }
      ],
      "name": "balanceOfBatch",
      "outputs": [
        {
          "internalType": "uint256[]",
          "name": "",
          "type": "uint256[]"
        }
      ],
      "stateMutability": "view",
      "type": "function"
    },
    {
      "inputs": [
        {
          "internalType": "uint256",
          "name": "id",
          "type": "uint256"
        }
      ],
      "name": "exists",
      "outputs": [
        {
          "internalType": "bool",
          "name": "",
          "type": "bool"
        }
      ],
      "stateMutability": "view",
      "type": "function"
    },
    {
      "inputs": [
        {
          "internalType": "address",
          "name": "account",
          "type": "address"
        },
        {
          "internalType": "address",
          "name": "operator",
          "type": "address"
        }
      ],
      "name": "isApprovedForAll",
      "outputs": [
        {
          "internalType": "bool",
          "name": "",
          "type": "bool"
        }
      ],
      "stateMutability": "view",
      "type": "function"
    },
    {
      "inputs": [
        {
          "internalType": "address",
          "name": "to",
          "type": "address"
        },
        {
          "internalType": "uint256",
          "name": "id",
          "type": "uint256"
        },
        {
          "internalType": "uint256",
          "name": "amount",
          "type": "uint256"
        },
        {
          "internalType": "bytes",
          "name": "data",
          "type": "bytes"
        }
      ],
      "name": "mint",
      "outputs": [],
      "stateMutability": "nonpayable",
      "type": "function"
    },
    {
      "inputs": [
        {
          "internalType": "address",
          "name": "to",
          "type": "address"
        },
        {
          "internalType": "uint256[]",
          "name": "ids",
          "type": "uint256[]"
        },
        {
          "internalType": "uint256[]",
          "name": "amounts",
          "type": "uint256[]"
        },
        {
          "internalType": "bytes",
          "name": "data",
          "type": "bytes"
        }
      ],
      "name": "mintBatch",
      "outputs": [],
      "stateMutability": "nonpayable",
      "type": "function"
    },
    {
      "inputs": [],
      "name": "owner",
      "outputs": [
        {
          "internalType": "address",
          "name": "",
          "type": "address"
        }
      ],
      "stateMutability": "view",
      "type": "function"
    },
    {
      "inputs": [],
      "name": "renounceOwnership",
      "outputs": [],
      "stateMutability": "nonpayable",
      "type": "function"
    },
    {
      "inputs": [
        {
          "internalType": "address",
          "name": "from",
          "type": "address"
        },
        {
          "internalType": "address",
          "name": "to",
          "type": "address"
        },
        {
          "internalType": "uint256[]",
          "name": "ids",
          "type": "uint256[]"
        },
        {
          "internalType": "uint256[]",
          "name": "values",
          "type": "uint256[]"
        },
        {
          "internalType": "bytes",
          "name": "data",
          "type": "bytes"
        }
      ],
      "name": "safeBatchTransferFrom",
      "outputs": [],
      "stateMutability": "nonpayable",
      "type": "function"
    },
    {
      "inputs": [
        {
          "internalType": "address",
          "name": "from",
          "type": "address"
        },
        {
          "internalType": "address",
          "name": "to",
          "type": "address"
        },
        {
          "internalType": "uint256",
          "name": "id",
          "type": "uint256"
        },
        {
          "internalType": "uint256",
          "name": "value",
          "type": "uint256"
        },
        {
          "internalType": "bytes",
          "name": "data",
          "type": "bytes"
        }
      ],
      "name": "safeTransferFrom",
      "outputs": [],
      "stateMutability": "nonpayable",
      "type": "function"
    },
    {
      "inputs": [
        {
          "internalType": "address",
          "name": "operator",
          "type": "address"
        },
        {
          "internalType": "bool",
          "name": "approved",
          "type": "bool"
        }
      ],
      "name": "setApprovalForAll",
      "outputs": [],
      "stateMutability": "nonpayable",
      "type": "function"
    },
    {
      "inputs": [
        {
          "internalType": "uint256",
          "name": "tokenId",
          "type": "uint256"
        },
        {
          "internalType": "string",
          "name": "tokenURI",
          "type": "string"
        }
      ],
      "name": "setURI",
      "outputs": [],
      "stateMutability": "nonpayable",
      "type": "function"
    },
    {
      "inputs": [
        {
          "internalType": "bytes4",
          "name": "interfaceId",
          "type": "bytes4"
        }
      ],
      "name": "supportsInterface",
      "outputs": [
        {
          "internalType": "bool",
          "name": "",
          "type": "bool"
        }
      ],
      "stateMutability": "view",
      "type": "function"
    },
    {
      "inputs": [
        {
          "internalType": "uint256",
          "name": "",
          "type": "uint256"
        }
      ],
      "name": "tokenTotalSupply",
      "outputs": [
        {
          "internalType": "uint256",
          "name": "",
          "type": "uint256"
        }
      ],
      "stateMutability": "view",
      "type": "function"
    },
    {
      "inputs": [
        {
          "internalType": "uint256",
          "name": "id",
          "type": "uint256"
        }
      ],
      "name": "totalSupply",
      "outputs": [
        {
          "internalType": "uint256",
          "name": "",
          "type": "uint256"
        }
      ],
      "stateMutability": "view",
      "type": "function"
    },
    {
      "inputs": [
        {
          "internalType": "address",
          "name": "newOwner",
          "type": "address"
        }
      ],
      "name": "transferOwnership",
      "outputs": [],
      "stateMutability": "nonpayable",
      "type": "function"
    },
    {
      "inputs": [
        {
          "internalType": "uint256",
          "name": "tokenId",
          "type": "uint256"
        }
      ],
      "name": "uri",
      "outputs": [
        {
          "internalType": "string",
          "name": "",
          "type": "string"
        }
      ],
      "stateMutability": "view",
      "type": "function"
    }
  ],
  "bytecode": "0x608060405234801561001057600080fd5b50604051611cea380380611cea83398101604081905261002f916100ea565b604080516020810190915260008152819061004981610088565b506001600160a01b03811661007857604051631e4fbdf760e01b81526000600482015260240160405180910390fd5b61008181610098565b5050610277565b600261009482826101b9565b5050565b600380546001600160a01b038381166001600160a01b0319831681179093556040519116919082907f8be0079c531659141344cd1fd0a4f28419497f9722a3daafe3b4186f6b6457e090600090a35050565b6000602082840312156100fc57600080fd5b81516001600160a01b038116811461011357600080fd5b9392505050565b634e487b7160e01b600052604160045260246000fd5b600181811c9082168061014457607f821691505b60208210810361016457634e487b7160e01b600052602260045260246000fd5b50919050565b601f8211156101b457806000526020600020601f840160051c810160208510156101915750805b601f840160051c820191505b818110156101b1576000815560010161019d565b50505b505050565b81516001600160401b038111156101d2576101d261011a565b6101e6816101e08454610130565b8461016a565b6020601f82116001811461021a57600083156102025750848201515b600019600385901b1c1916600184901b1784556101b1565b600084815260208120601f198516915b8281101561024a578785015182556020948501946001909201910161022a565b50848210156102685786840151600019600387901b60f8161c191681555b50505050600190811b01905550565b611a64806102866000396000f3fe608060405234801561001057600080fd5b506004361061010a5760003560e01c8063715018a6116100a2578063a22cb46511610071578063a22cb4651461024b578063bd85b0391461025e578063e985e9c51461027e578063f242432a14610291578063f2fde38b146102a457600080fd5b8063715018a614610202578063731133e91461020a578063862440e21461021d5780638da5cb5b1461023057600080fd5b80632eb2c2d6116100de5780632eb2c2d61461018d5780634e1273f4146101a05780634f558e79146101c05780636468e317146101e257600080fd5b8062fdd58e1461010f57806301ffc9a7146101355780630e89341c146101585780631f7fdffa14610178575b600080fd5b61012261011d366004611136565b6102b7565b6040519081526020015b60405180910390f35b610148610143366004611176565b6102df565b604051901515815260200161012c565b61016b61016636600461119a565b61032f565b60405161012c9190611203565b61018b610186366004611367565b610417565b005b61018b61019b366004611409565b6104cb565b6101b36101ae3660046114bc565b610532565b60405161012c91906115bf565b6101486101ce36600461119a565b600090815260056020526040902054151590565b6101226101f036600461119a565b60056020526000908152604090205481565b61018b6105fe565b61018b6102183660046115d2565b610612565b61018b61022b36600461161a565b6106b1565b6003546040516001600160a01b03909116815260200161012c565b61018b61025936600461166a565b610730565b61012261026c36600461119a565b60009081526005602052604090205490565b61014861028c3660046116a6565b61073f565b61018b61029f3660046116d9565b61076d565b61018b6102b2366004611731565b6107cc565b6000818152602081815260408083206001600160a01b03861684529091529020545b92915050565b60006001600160e01b03198216636cdb3d1360e11b148061031057506001600160e01b031982166303a24d0760e21b145b806102d957506301ffc9a760e01b6001600160e01b03198316146102d9565b60008181526004602052604081208054606092919061034d9061174c565b80601f01602080910402602001604051908101604052809291908181526020018280546103799061174c565b80156103c65780601f1061039b576101008083540402835291602001916103c6565b820191906000526020600020905b8154815290600101906020018083116103a957829003601f168201915b505050505090506000815111156103dd5792915050565b6103e68361080a565b6103ef8461089e565b604051602001610400929190611786565b604051602081830303815290604052915050919050565b6003546001600160a01b0316331461044a5760405162461bcd60e51b8152600401610441906117b5565b60405180910390fd5b61045684848484610930565b60005b83518110156104c457828181518110610474576104746117ff565b602002602001015160056000868481518110610492576104926117ff565b6020026020010151815260200190815260200160002060008282546104b79190611815565b9091555050600101610459565b5050505050565b336001600160a01b03861681148015906104ec57506104ea868261073f565b155b1561051d5760405163711bec9160e11b81526001600160a01b03808316600483015287166024820152604401610441565b61052a868686868661096e565b505050505050565b606081518351146105635781518351604051635b05999160e01b815260048101929092526024820152604401610441565b600083516001600160401b0381111561057e5761057e611216565b6040519080825280602002602001820160405280156105a7578160200160208202803683370190505b50905060005b84518110156105f6576020808202860101516105d1906020808402870101516102b7565b8282815181106105e3576105e36117ff565b60209081029190910101526001016105ad565b509392505050565b6106066109ce565b61061060006109fb565b565b6003546001600160a01b0316331461063c5760405162461bcd60e51b8152600401610441906117b5565b61064884848484610a4d565b60008381526005602052604081208054849290610666908490611815565b909155505060405182815283906001600160a01b038616907f3ae65ec65be7bc8f3d8f0741663b31effa663e2500b055fe4307e455fdecdcd09060200160405180910390a350505050565b6003546001600160a01b031633146106db5760405162461bcd60e51b8152600401610441906117b5565b60008281526004602052604090206106f38282611882565b50817fbf032ae7dcb484f99f9f3977ba9cde222756e7073de74244ceb89de862569bdb826040516107249190611203565b60405180910390a25050565b61073b338383610aaa565b5050565b6001600160a01b03918216600090815260016020908152604080832093909416825291909152205460ff1690565b336001600160a01b038616811480159061078e575061078c868261073f565b155b156107bf5760405163711bec9160e11b81526001600160a01b03808316600483015287166024820152604401610441565b61052a8686868686610b40565b6107d46109ce565b6001600160a01b0381166107fe57604051631e4fbdf760e01b815260006004820152602401610441565b610807816109fb565b50565b6060600280546108199061174c565b80601f01602080910402602001604051908101604052809291908181526020018280546108459061174c565b80156108925780601f1061086757610100808354040283529160200191610892565b820191906000526020600020905b81548152906001019060200180831161087557829003601f168201915b50505050509050919050565b606060006108ab83610bce565b60010190506000816001600160401b038111156108ca576108ca611216565b6040519080825280601f01601f1916602001820160405280156108f4576020820181803683370190505b5090508181016020015b600019016f181899199a1a9b1b9c1cb0b131b232b360811b600a86061a8153600a85049450846108fe57509392505050565b6001600160a01b03841661095a57604051632bfa23e760e11b815260006004820152602401610441565b610968600085858585610ca6565b50505050565b6001600160a01b03841661099857604051632bfa23e760e11b815260006004820152602401610441565b6001600160a01b0385166109c157604051626a0d4560e21b815260006004820152602401610441565b6104c48585858585610ca6565b6003546001600160a01b031633146106105760405163118cdaa760e01b8152336004820152602401610441565b600380546001600160a01b038381166001600160a01b0319831681179093556040519116919082907f8be0079c531659141344cd1fd0a4f28419497f9722a3daafe3b4186f6b6457e090600090a35050565b6001600160a01b038416610a7757604051632bfa23e760e11b815260006004820152602401610441565b6040805160018082526020820186905281830190815260608201859052608082019092529061052a600087848487610ca6565b6001600160a01b038216610ad35760405162ced3e160e81b815260006004820152602401610441565b6001600160a01b03838116600081815260016020908152604080832094871680845294825291829020805460ff191686151590811790915591519182527f17307eab39ab6107e8899845ad3d59bd9653f200f220920489ca2b5937696c31910160405180910390a3505050565b6001600160a01b038416610b6a57604051632bfa23e760e11b815260006004820152602401610441565b6001600160a01b038516610b9357604051626a0d4560e21b815260006004820152602401610441565b60408051600180825260208201869052818301908152606082018590526080820190925290610bc58787848487610ca6565b50505050505050565b60008072184f03e93ff9f4daa797ed6e38ed64bf6a1f0160401b8310610c0d5772184f03e93ff9f4daa797ed6e38ed64bf6a1f0160401b830492506040015b6d04ee2d6d415b85acef81000000008310610c39576d04ee2d6d415b85acef8100000000830492506020015b662386f26fc100008310610c5757662386f26fc10000830492506010015b6305f5e1008310610c6f576305f5e100830492506008015b6127108310610c8357612710830492506004015b60648310610c95576064830492506002015b600a83106102d95760010192915050565b610cb285858585610cf9565b6001600160a01b038416156104c45782513390600103610ceb5760208481015190840151610ce4838989858589610f0d565b505061052a565b61052a818787878787611031565b8051825114610d285781518151604051635b05999160e01b815260048101929092526024820152604401610441565b3360005b8351811015610e2e576020818102858101820151908501909101516001600160a01b03881615610ddf576000828152602081815260408083206001600160a01b038c16845290915290205481811015610db8576040516303dee4c560e01b81526001600160a01b038a166004820152602481018290526044810183905260648101849052608401610441565b6000838152602081815260408083206001600160a01b038d16845290915290209082900390555b6001600160a01b03871615610e24576000828152602081815260408083206001600160a01b038b16845290915281208054839290610e1e908490611815565b90915550505b5050600101610d2c565b508251600103610eaf5760208301516000906020840151909150856001600160a01b0316876001600160a01b0316846001600160a01b03167fc3d58168c5ae7397731d063d5bbf3d657854427343f4c083240f7aacaa2d0f628585604051610ea0929190918252602082015260400190565b60405180910390a450506104c4565b836001600160a01b0316856001600160a01b0316826001600160a01b03167f4a39dc06d4c0dbc64b70af90fd698a233a518aa5d07e595d983b8c0526c8f7fb8686604051610efe929190611940565b60405180910390a45050505050565b6001600160a01b0384163b1561052a5760405163f23a6e6160e01b81526001600160a01b0385169063f23a6e6190610f51908990899088908890889060040161196e565b6020604051808303816000875af1925050508015610f8c575060408051601f3d908101601f19168201909252610f89918101906119b3565b60015b610ff5573d808015610fba576040519150601f19603f3d011682016040523d82523d6000602084013e610fbf565b606091505b508051600003610fed57604051632bfa23e760e11b81526001600160a01b0386166004820152602401610441565b805160208201fd5b6001600160e01b0319811663f23a6e6160e01b14610bc557604051632bfa23e760e11b81526001600160a01b0386166004820152602401610441565b6001600160a01b0384163b1561052a5760405163bc197c8160e01b81526001600160a01b0385169063bc197c819061107590899089908890889088906004016119d0565b6020604051808303816000875af19250505080156110b0575060408051601f3d908101601f191682019092526110ad918101906119b3565b60015b6110de573d808015610fba576040519150601f19603f3d011682016040523d82523d6000602084013e610fbf565b6001600160e01b0319811663bc197c8160e01b14610bc557604051632bfa23e760e11b81526001600160a01b0386166004820152602401610441565b80356001600160a01b038116811461113157600080fd5b919050565b6000806040838503121561114957600080fd5b6111528361111a565b946020939093013593505050565b6001600160e01b03198116811461080757600080fd5b60006020828403121561118857600080fd5b813561119381611160565b9392505050565b6000602082840312156111ac57600080fd5b5035919050565b60005b838110156111ce5781810151838201526020016111b6565b50506000910152565b600081518084526111ef8160208601602086016111b3565b601f01601f19169290920160200192915050565b60208152600061119360208301846111d7565b634e487b7160e01b600052604160045260246000fd5b604051601f8201601f191681016001600160401b038111828210171561125457611254611216565b604052919050565b60006001600160401b0382111561127557611275611216565b5060051b60200190565b600082601f83011261129057600080fd5b81356112a361129e8261125c565b61122c565b8082825260208201915060208360051b8601019250858311156112c557600080fd5b602085015b838110156112e25780358352602092830192016112ca565b5095945050505050565b6000806001600160401b0384111561130657611306611216565b50601f8301601f191660200161131b8161122c565b91505082815283838301111561133057600080fd5b828260208301376000602084830101529392505050565b600082601f83011261135857600080fd5b611193838335602085016112ec565b6000806000806080858703121561137d57600080fd5b6113868561111a565b935060208501356001600160401b038111156113a157600080fd5b6113ad8782880161127f565b93505060408501356001600160401b038111156113c957600080fd5b6113d58782880161127f565b92505060608501356001600160401b038111156113f157600080fd5b6113fd87828801611347565b91505092959194509250565b600080600080600060a0868803121561142157600080fd5b61142a8661111a565b94506114386020870161111a565b935060408601356001600160401b0381111561145357600080fd5b61145f8882890161127f565b93505060608601356001600160401b0381111561147b57600080fd5b6114878882890161127f565b92505060808601356001600160401b038111156114a357600080fd5b6114af88828901611347565b9150509295509295909350565b600080604083850312156114cf57600080fd5b82356001600160401b038111156114e557600080fd5b8301601f810185136114f657600080fd5b803561150461129e8261125c565b8082825260208201915060208360051b85010192508783111561152657600080fd5b6020840193505b8284101561154f5761153e8461111a565b82526020938401939091019061152d565b945050505060208301356001600160401b0381111561156d57600080fd5b6115798582860161127f565b9150509250929050565b600081518084526020840193506020830160005b828110156115b5578151865260209586019590910190600101611597565b5093949350505050565b6020815260006111936020830184611583565b600080600080608085870312156115e857600080fd5b6115f18561111a565b9350602085013592506040850135915060608501356001600160401b038111156113f157600080fd5b6000806040838503121561162d57600080fd5b8235915060208301356001600160401b0381111561164a57600080fd5b8301601f8101851361165b57600080fd5b611579858235602084016112ec565b6000806040838503121561167d57600080fd5b6116868361111a565b91506020830135801515811461169b57600080fd5b809150509250929050565b600080604083850312156116b957600080fd5b6116c28361111a565b91506116d06020840161111a565b90509250929050565b600080600080600060a086880312156116f157600080fd5b6116fa8661111a565b94506117086020870161111a565b9350604086013592506060860135915060808601356001600160401b038111156114a357600080fd5b60006020828403121561174357600080fd5b6111938261111a565b600181811c9082168061176057607f821691505b60208210810361178057634e487b7160e01b600052602260045260246000fd5b50919050565b600083516117988184602088016111b3565b8351908301906117ac8183602088016111b3565b01949350505050565b6020808252602a908201527f4f6e6c79206576656e7420636f6e74726163742063616e2063616c6c207468696040820152693990333ab731ba34b7b760b11b606082015260800190565b634e487b7160e01b600052603260045260246000fd5b808201808211156102d957634e487b7160e01b600052601160045260246000fd5b601f82111561187d57806000526020600020601f840160051c8101602085101561185d5750805b601f840160051c820191505b818110156104c45760008155600101611869565b505050565b81516001600160401b0381111561189b5761189b611216565b6118af816118a9845461174c565b84611836565b6020601f8211600181146118e357600083156118cb5750848201515b600019600385901b1c1916600184901b1784556104c4565b600084815260208120601f198516915b8281101561191357878501518255602094850194600190920191016118f3565b50848210156119315786840151600019600387901b60f8161c191681555b50505050600190811b01905550565b6040815260006119536040830185611583565b82810360208401526119658185611583565b95945050505050565b6001600160a01b03868116825285166020820152604081018490526060810183905260a0608082018190526000906119a8908301846111d7565b979650505050505050565b6000602082840312156119c557600080fd5b815161119381611160565b6001600160a01b0386811682528516602082015260a0604082018190526000906119fc90830186611583565b8281036060840152611a0e8186611583565b90508281036080840152611a2281856111d7565b9897505050505050505056fea264697066735822122042753788bc2eccf06cba16c08f1d8adfaa53c9d7f3974a43362cdd2584c3dab264736f6c634300081c0033",
  "linkReferences": {},
  "deployedLinkReferences": {}
}