{
  "_format": "hh-sol-artifact-1",
  "contractName": "TicketNFT",
  "sourceName": "src/contracts/TicketNFT.sol",
  "abi": [
    {
      "inputs": [
        {
          "internalType": "string",
          "name": "name",
          "type": "string"
        },
        {
          "internalType": "string",
          "name": "symbol",
          "type": "string"
        },
        {
          "internalType": "address",
          "name": "eventContract",
          "type": "address"
        }
      ],
      "stateMutability": "nonpayable",
      "type": "constructor"
    },
    {
      "inputs": [
        {
          "internalType": "address",
          "name": "sender",
          "type": "address"
        },
        {
          "internalType": "uint256",
          "name": "tokenId",
          "type": "uint256"
        },
        {
          "internalType": "address",
          "name": "owner",
          "type": "address"
        }
      ],
      "name": "ERC721IncorrectOwner",
      "type": "error"
    },
    {
      "inputs": [
        {
          "internalType": "address",
          "name": "operator",
          "type": "address"
        },
        {
          "internalType": "uint256",
          "name": "tokenId",
          "type": "uint256"
        }
      ],
      "name": "ERC721InsufficientApproval",
      "type": "error"
    },
    {
      "inputs": [
        {
          "internalType": "address",
          "name": "approver",
          "type": "address"
        }
      ],
      "name": "ERC721InvalidApprover",
      "type": "error"
    },
    {
      "inputs": [
        {
          "internalType": "address",
          "name": "operator",
          "type": "address"
        }
      ],
      "name": "ERC721InvalidOperator",
      "type": "error"
    },
    {
      "inputs": [
        {
          "internalType": "address",
          "name": "owner",
          "type": "address"
        }
      ],
      "name": "ERC721InvalidOwner",
      "type": "error"
    },
    {
      "inputs": [
        {
          "internalType": "address",
          "name": "receiver",
          "type": "address"
        }
      ],
      "name": "ERC721InvalidReceiver",
      "type": "error"
    },
    {
      "inputs": [
        {
          "internalType": "address",
          "name": "sender",
          "type": "address"
        }
      ],
      "name": "ERC721InvalidSender",
      "type": "error"
    },
    {
      "inputs": [
        {
          "internalType": "uint256",
          "name": "tokenId",
          "type": "uint256"
        }
      ],
      "name": "ERC721NonexistentToken",
      "type": "error"
    },
    {
      "inputs": [
        {
          "internalType": "address",
          "name": "owner",
          "type": "address"
        }
      ],
      "name": "OwnableInvalidOwner",
      "type": "error"
    },
    {
      "inputs": [
        {
          "internalType": "address",
          "name": "account",
          "type": "address"
        }
      ],
      "name": "OwnableUnauthorizedAccount",
      "type": "error"
    },
    {
      "inputs": [
        {
          "internalType": "uint256",
          "name": "value",
          "type": "uint256"
        },
        {
          "internalType": "uint256",
          "name": "length",
          "type": "uint256"
        }
      ],
      "name": "StringsInsufficientHexLength",
      "type": "error"
    },
    {
      "anonymous": false,
      "inputs": [
        {
          "indexed": true,
          "internalType": "address",
          "name": "owner",
          "type": "address"
        },
        {
          "indexed": true,
          "internalType": "address",
          "name": "approved",
          "type": "address"
        },
        {
          "indexed": true,
          "internalType": "uint256",
          "name": "tokenId",
          "type": "uint256"
        }
      ],
      "name": "Approval",
      "type": "event"
    },
    {
      "anonymous": false,
      "inputs": [
        {
          "indexed": true,
          "internalType": "address",
          "name": "owner",
          "type": "address"
        },
        {
          "indexed": true,
          "internalType": "address",
          "name": "operator",
          "type": "address"
        },
        {
          "indexed": false,
          "internalType": "bool",
          "name": "approved",
          "type": "bool"
        }
      ],
      "name": "ApprovalForAll",
      "type": "event"
    },
    {
      "anonymous": false,
      "inputs": [
        {
          "indexed": false,
          "internalType": "uint256",
          "name": "_fromTokenId",
          "type": "uint256"
        },
        {
          "indexed": false,
          "internalType": "uint256",
          "name": "_toTokenId",
          "type": "uint256"
        }
      ],
      "name": "BatchMetadataUpdate",
      "type": "event"
    },
    {
      "anonymous": false,
      "inputs": [
        {
          "indexed": false,
          "internalType": "uint256",
          "name": "_tokenId",
          "type": "uint256"
        }
      ],
      "name": "MetadataUpdate",
      "type": "event"
    },
    {
      "anonymous": false,
      "inputs": [
        {
          "indexed": true,
          "internalType": "address",
          "name": "previousOwner",
          "type": "address"
        },
        {
          "indexed": true,
          "internalType": "address",
          "name": "newOwner",
          "type": "address"
        }
      ],
      "name": "OwnershipTransferred",
      "type": "event"
    },
    {
      "anonymous": false,
      "inputs": [
        {
          "indexed": true,
          "internalType": "uint256",
          "name": "tokenId",
          "type": "uint256"
        },
        {
          "indexed": true,
          "internalType": "address",
          "name": "to",
          "type": "address"
        },
        {
          "indexed": false,
          "internalType": "uint256",
          "name": "tierId",
          "type": "uint256"
        }
      ],
      "name": "TicketMinted",
      "type": "event"
    },
    {
      "anonymous": false,
      "inputs": [
        {
          "indexed": true,
          "internalType": "uint256",
          "name": "tokenId",
          "type": "uint256"
        }
      ],
      "name": "TicketUsed",
      "type": "event"
    },
    {
      "anonymous": false,
      "inputs": [
        {
          "indexed": true,
          "internalType": "address",
          "name": "from",
          "type": "address"
        },
        {
          "indexed": true,
          "internalType": "address",
          "name": "to",
          "type": "address"
        },
        {
          "indexed": true,
          "internalType": "uint256",
          "name": "tokenId",
          "type": "uint256"
        }
      ],
      "name": "Transfer",
      "type": "event"
    },
    {
      "inputs": [
        {
          "internalType": "address",
          "name": "to",
          "type": "address"
        },
        {
          "internalType": "uint256",
          "name": "tokenId",
          "type": "uint256"
        }
      ],
      "name": "approve",
      "outputs": [],
      "stateMutability": "nonpayable",
      "type": "function"
    },
    {
      "inputs": [
        {
          "internalType": "address",
          "name": "owner",
          "type": "address"
        }
      ],
      "name": "balanceOf",
      "outputs": [
        {
          "internalType": "uint256",
          "name": "",
          "type": "uint256"
        }
      ],
      "stateMutability": "view",
      "type": "function"
    },
    {
      "inputs": [
        {
          "internalType": "uint256",
          "name": "tokenId",
          "type": "uint256"
        }
      ],
      "name": "exists",
      "outputs": [
        {
          "internalType": "bool",
          "name": "",
          "type": "bool"
        }
      ],
      "stateMutability": "view",
      "type": "function"
    },
    {
      "inputs": [
        {
          "internalType": "uint256",
          "name": "tokenId",
          "type": "uint256"
        }
      ],
      "name": "getApproved",
      "outputs": [
        {
          "internalType": "address",
          "name": "",
          "type": "address"
        }
      ],
      "stateMutability": "view",
      "type": "function"
    },
    {
      "inputs": [
        {
          "internalType": "address",
          "name": "owner",
          "type": "address"
        },
        {
          "internalType": "address",
          "name": "operator",
          "type": "address"
        }
      ],
      "name": "isApprovedForAll",
      "outputs": [
        {
          "internalType": "bool",
          "name": "",
          "type": "bool"
        }
      ],
      "stateMutability": "view",
      "type": "function"
    },
    {
      "inputs": [
        {
          "internalType": "address",
          "name": "to",
          "type": "address"
        },
        {
          "internalType": "uint256",
          "name": "tierId",
          "type": "uint256"
        }
      ],
      "name": "mint",
      "outputs": [
        {
          "internalType": "uint256",
          "name": "",
          "type": "uint256"
        }
      ],
      "stateMutability": "nonpayable",
      "type": "function"
    },
    {
      "inputs": [],
      "name": "name",
      "outputs": [
        {
          "internalType": "string",
          "name": "",
          "type": "string"
        }
      ],
      "stateMutability": "view",
      "type": "function"
    },
    {
      "inputs": [],
      "name": "owner",
      "outputs": [
        {
          "internalType": "address",
          "name": "",
          "type": "address"
        }
      ],
      "stateMutability": "view",
      "type": "function"
    },
    {
      "inputs": [
        {
          "internalType": "uint256",
          "name": "tokenId",
          "type": "uint256"
        }
      ],
      "name": "ownerOf",
      "outputs": [
        {
          "internalType": "address",
          "name": "",
          "type": "address"
        }
      ],
      "stateMutability": "view",
      "type": "function"
    },
    {
      "inputs": [],
      "name": "renounceOwnership",
      "outputs": [],
      "stateMutability": "nonpayable",
      "type": "function"
    },
    {
      "inputs": [
        {
          "internalType": "address",
          "name": "from",
          "type": "address"
        },
        {
          "internalType": "address",
          "name": "to",
          "type": "address"
        },
        {
          "internalType": "uint256",
          "name": "tokenId",
          "type": "uint256"
        }
      ],
      "name": "safeTransferFrom",
      "outputs": [],
      "stateMutability": "nonpayable",
      "type": "function"
    },
    {
      "inputs": [
        {
          "internalType": "address",
          "name": "from",
          "type": "address"
        },
        {
          "internalType": "address",
          "name": "to",
          "type": "address"
        },
        {
          "internalType": "uint256",
          "name": "tokenId",
          "type": "uint256"
        },
        {
          "internalType": "bytes",
          "name": "data",
          "type": "bytes"
        }
      ],
      "name": "safeTransferFrom",
      "outputs": [],
      "stateMutability": "nonpayable",
      "type": "function"
    },
    {
      "inputs": [
        {
          "internalType": "address",
          "name": "operator",
          "type": "address"
        },
        {
          "internalType": "bool",
          "name": "approved",
          "type": "bool"
        }
      ],
      "name": "setApprovalForAll",
      "outputs": [],
      "stateMutability": "nonpayable",
      "type": "function"
    },
    {
      "inputs": [
        {
          "internalType": "bytes4",
          "name": "interfaceId",
          "type": "bytes4"
        }
      ],
      "name": "supportsInterface",
      "outputs": [
        {
          "internalType": "bool",
          "name": "",
          "type": "bool"
        }
      ],
      "stateMutability": "view",
      "type": "function"
    },
    {
      "inputs": [],
      "name": "symbol",
      "outputs": [
        {
          "internalType": "string",
          "name": "",
          "type": "string"
        }
      ],
      "stateMutability": "view",
      "type": "function"
    },
    {
      "inputs": [
        {
          "internalType": "uint256",
          "name": "",
          "type": "uint256"
        }
      ],
      "name": "ticketData",
      "outputs": [
        {
          "internalType": "uint256",
          "name": "tierId",
          "type": "uint256"
        },
        {
          "internalType": "uint256",
          "name": "seatNumber",
          "type": "uint256"
        },
        {
          "internalType": "string",
          "name": "perks",
          "type": "string"
        },
        {
          "internalType": "string",
          "name": "qrCodeURI",
          "type": "string"
        },
        {
          "internalType": "bool",
          "name": "isUsed",
          "type": "bool"
        }
      ],
      "stateMutability": "view",
      "type": "function"
    },
    {
      "inputs": [
        {
          "internalType": "uint256",
          "name": "tokenId",
          "type": "uint256"
        }
      ],
      "name": "tokenURI",
      "outputs": [
        {
          "internalType": "string",
          "name": "",
          "type": "string"
        }
      ],
      "stateMutability": "view",
      "type": "function"
    },
    {
      "inputs": [],
      "name": "totalSupply",
      "outputs": [
        {
          "internalType": "uint256",
          "name": "",
          "type": "uint256"
        }
      ],
      "stateMutability": "view",
      "type": "function"
    },
    {
      "inputs": [
        {
          "internalType": "address",
          "name": "from",
          "type": "address"
        },
        {
          "internalType": "address",
          "name": "to",
          "type": "address"
        },
        {
          "internalType": "uint256",
          "name": "tokenId",
          "type": "uint256"
        }
      ],
      "name": "transferFrom",
      "outputs": [],
      "stateMutability": "nonpayable",
      "type": "function"
    },
    {
      "inputs": [
        {
          "internalType": "address",
          "name": "newOwner",
          "type": "address"
        }
      ],
      "name": "transferOwnership",
      "outputs": [],
      "stateMutability": "nonpayable",
      "type": "function"
    },
    {
      "inputs": [
        {
          "internalType": "uint256",
          "name": "tokenId",
          "type": "uint256"
        },
        {
          "internalType": "string",
          "name": "perks",
          "type": "string"
        }
      ],
      "name": "updatePerks",
      "outputs": [],
      "stateMutability": "nonpayable",
      "type": "function"
    },
    {
      "inputs": [
        {
          "internalType": "uint256",
          "name": "tokenId",
          "type": "uint256"
        }
      ],
      "name": "useTicket",
      "outputs": [],
      "stateMutability": "nonpayable",
      "type": "function"
    }
  ],
  "bytecode": "0x608060405234801561001057600080fd5b50604051611f29380380611f2983398101604081905261002f91610199565b808383600061003e83826102ad565b50600161004b82826102ad565b5050506001600160a01b03811661007c57604051631e4fbdf760e01b81526000600482015260240160405180910390fd5b6100858161008e565b5050505061036b565b600780546001600160a01b038381166001600160a01b0319831681179093556040519116919082907f8be0079c531659141344cd1fd0a4f28419497f9722a3daafe3b4186f6b6457e090600090a35050565b634e487b7160e01b600052604160045260246000fd5b600082601f83011261010757600080fd5b81516001600160401b03811115610120576101206100e0565b604051601f8201601f19908116603f011681016001600160401b038111828210171561014e5761014e6100e0565b60405281815283820160200185101561016657600080fd5b60005b8281101561018557602081860181015183830182015201610169565b506000918101602001919091529392505050565b6000806000606084860312156101ae57600080fd5b83516001600160401b038111156101c457600080fd5b6101d0868287016100f6565b602086015190945090506001600160401b038111156101ee57600080fd5b6101fa868287016100f6565b604086015190935090506001600160a01b038116811461021957600080fd5b809150509250925092565b600181811c9082168061023857607f821691505b60208210810361025857634e487b7160e01b600052602260045260246000fd5b50919050565b601f8211156102a857806000526020600020601f840160051c810160208510156102855750805b601f840160051c820191505b818110156102a55760008155600101610291565b50505b505050565b81516001600160401b038111156102c6576102c66100e0565b6102da816102d48454610224565b8461025e565b6020601f82116001811461030e57600083156102f65750848201515b600019600385901b1c1916600184901b1784556102a5565b600084815260208120601f198516915b8281101561033e578785015182556020948501946001909201910161031e565b508482101561035c5786840151600019600387901b60f8161c191681555b50505050600190811b01905550565b611baf8061037a6000396000f3fe608060405234801561001057600080fd5b50600436106101425760003560e01c80636352211e116100b8578063a22cb4651161007c578063a22cb465146102b8578063a8df7ada146102cb578063b88d4fde146102de578063c87b56dd146102f1578063e985e9c514610304578063f2fde38b1461031757600080fd5b80636352211e1461027157806370a0823114610284578063715018a6146102975780638da5cb5b1461029f57806395d89b41146102b057600080fd5b806323b872dd1161010a57806323b872dd146101d657806326606448146101e9578063394803fd146101fc57806340c10f191461022057806342842e0e146102335780634f558e791461024657600080fd5b806301ffc9a71461014757806306fdde031461016f578063081812fc14610184578063095ea7b3146101af57806318160ddd146101c4575b600080fd5b61015a610155366004611502565b61032a565b60405190151581526020015b60405180910390f35b61017761033b565b604051610166919061156f565b610197610192366004611582565b6103cd565b6040516001600160a01b039091168152602001610166565b6101c26101bd3660046115b7565b6103f6565b005b6008545b604051908152602001610166565b6101c26101e43660046115e1565b610405565b6101c26101f7366004611582565b610495565b61020f61020a366004611582565b6105b9565b60405161016695949392919061161e565b6101c861022e3660046115b7565b6106fb565b6101c26102413660046115e1565b610846565b61015a610254366004611582565b6000908152600260205260409020546001600160a01b0316151590565b61019761027f366004611582565b610866565b6101c8610292366004611664565b610871565b6101c26108b9565b6007546001600160a01b0316610197565b6101776108cd565b6101c26102c636600461167f565b6108dc565b6101c26102d936600461174b565b6108e7565b6101c26102ec3660046117a6565b610988565b6101776102ff366004611582565b6109a0565b61015a610312366004611822565b6109ab565b6101c2610325366004611664565b6109d9565b600061033582610a17565b92915050565b60606000805461034a90611855565b80601f016020809104026020016040519081016040528092919081815260200182805461037690611855565b80156103c35780601f10610398576101008083540402835291602001916103c3565b820191906000526020600020905b8154815290600101906020018083116103a657829003601f168201915b5050505050905090565b60006103d882610a3c565b506000828152600460205260409020546001600160a01b0316610335565b610401828233610a75565b5050565b6001600160a01b03821661043457604051633250574960e11b8152600060048201526024015b60405180910390fd5b6000610441838333610a82565b9050836001600160a01b0316816001600160a01b03161461048f576040516364283d7b60e01b81526001600160a01b038086166004830152602482018490528216604482015260640161042b565b50505050565b6007546001600160a01b031633146104bf5760405162461bcd60e51b815260040161042b9061188f565b6000818152600260205260409020546001600160a01b031661051b5760405162461bcd60e51b8152602060048201526015602482015274151a58dad95d08191bd95cc81b9bdd08195e1a5cdd605a1b604482015260640161042b565b60008181526009602052604090206004015460ff16156105735760405162461bcd60e51b8152602060048201526013602482015272151a58dad95d08185b1c9958591e481d5cd959606a1b604482015260640161042b565b600081815260096020526040808220600401805460ff191660011790555182917f1f5d53e38fbc5a40092861e993062e74fb6dc7acef58356c7b55aa1afd8b350191a250565b600960205260009081526040902080546001820154600283018054929391926105e190611855565b80601f016020809104026020016040519081016040528092919081815260200182805461060d90611855565b801561065a5780601f1061062f5761010080835404028352916020019161065a565b820191906000526020600020905b81548152906001019060200180831161063d57829003601f168201915b50505050509080600301805461066f90611855565b80601f016020809104026020016040519081016040528092919081815260200182805461069b90611855565b80156106e85780601f106106bd576101008083540402835291602001916106e8565b820191906000526020600020905b8154815290600101906020018083116106cb57829003601f168201915b5050506004909301549192505060ff1685565b600061070f6007546001600160a01b031690565b6001600160a01b0316336001600160a01b03161461073f5760405162461bcd60e51b815260040161042b9061188f565b6008805490600061074f836118ef565b90915550506008546107618482610b7b565b6040518060a0016040528084815260200182815260200160405180602001604052806000815250815260200161079683610be0565b815260006020918201819052838152600982526040908190208351815591830151600183015582015160028201906107ce908261194f565b50606082015160038201906107e3908261194f565b50608091909101516004909101805460ff19169115159190911790556040518381526001600160a01b0385169082907f5c1c9352d51031acc9a558d7cdcca15b0ce5fe4f46d7315cca355248175b0a379060200160405180910390a39392505050565b61086183838360405180602001604052806000815250610988565b505050565b600061033582610a3c565b60006001600160a01b03821661089d576040516322718ad960e21b81526000600482015260240161042b565b506001600160a01b031660009081526003602052604090205490565b6108c1610c1d565b6108cb6000610c4a565b565b60606001805461034a90611855565b610401338383610c9c565b6007546001600160a01b031633146109115760405162461bcd60e51b815260040161042b9061188f565b6000828152600260205260409020546001600160a01b031661096d5760405162461bcd60e51b8152602060048201526015602482015274151a58dad95d08191bd95cc81b9bdd08195e1a5cdd605a1b604482015260640161042b565b6000828152600960205260409020600201610861828261194f565b610993848484610405565b61048f3385858585610d3b565b606061033582610e66565b6001600160a01b03918216600090815260056020908152604080832093909416825291909152205460ff1690565b6109e1610c1d565b6001600160a01b038116610a0b57604051631e4fbdf760e01b81526000600482015260240161042b565b610a1481610c4a565b50565b60006001600160e01b03198216632483248360e11b1480610335575061033582610f77565b6000818152600260205260408120546001600160a01b03168061033557604051637e27328960e01b81526004810184905260240161042b565b6108618383836001610fc7565b6000828152600260205260408120546001600160a01b0390811690831615610aaf57610aaf8184866110cd565b6001600160a01b03811615610aed57610acc600085600080610fc7565b6001600160a01b038116600090815260036020526040902080546000190190555b6001600160a01b03851615610b1c576001600160a01b0385166000908152600360205260409020805460010190555b60008481526002602052604080822080546001600160a01b0319166001600160a01b0389811691821790925591518793918516917fddf252ad1be2c89b69c2b068fc378daa952ba7f163c4a11628f55a4df523b3ef91a4949350505050565b6001600160a01b038216610ba557604051633250574960e11b81526000600482015260240161042b565b6000610bb383836000610a82565b90506001600160a01b03811615610861576040516339e3563760e11b81526000600482015260240161042b565b6060610beb82611131565b610bf63060146111c4565b604051602001610c07929190611a0e565b6040516020818303038152906040529050919050565b6007546001600160a01b031633146108cb5760405163118cdaa760e01b815233600482015260240161042b565b600780546001600160a01b038381166001600160a01b0319831681179093556040519116919082907f8be0079c531659141344cd1fd0a4f28419497f9722a3daafe3b4186f6b6457e090600090a35050565b6001600160a01b038216610cce57604051630b61174360e31b81526001600160a01b038316600482015260240161042b565b6001600160a01b03838116600081815260056020908152604080832094871680845294825291829020805460ff191686151590811790915591519182527f17307eab39ab6107e8899845ad3d59bd9653f200f220920489ca2b5937696c31910160405180910390a3505050565b6001600160a01b0383163b15610e5f57604051630a85bd0160e11b81526001600160a01b0384169063150b7a0290610d7d908890889087908790600401611a99565b6020604051808303816000875af1925050508015610db8575060408051601f3d908101601f19168201909252610db591810190611ad6565b60015b610e21573d808015610de6576040519150601f19603f3d011682016040523d82523d6000602084013e610deb565b606091505b508051600003610e1957604051633250574960e11b81526001600160a01b038516600482015260240161042b565b805160208201fd5b6001600160e01b03198116630a85bd0160e11b14610e5d57604051633250574960e11b81526001600160a01b038516600482015260240161042b565b505b5050505050565b6060610e7182610a3c565b5060008281526006602052604081208054610e8b90611855565b80601f0160208091040260200160405190810160405280929190818152602001828054610eb790611855565b8015610f045780601f10610ed957610100808354040283529160200191610f04565b820191906000526020600020905b815481529060010190602001808311610ee757829003601f168201915b505050505090506000610f2260408051602081019091526000815290565b90508051600003610f34575092915050565b815115610f66578082604051602001610f4e929190611af3565b60405160208183030381529060405292505050919050565b610f6f8461133c565b949350505050565b60006001600160e01b031982166380ac58cd60e01b1480610fa857506001600160e01b03198216635b5e139f60e01b145b8061033557506301ffc9a760e01b6001600160e01b0319831614610335565b8080610fdb57506001600160a01b03821615155b1561109d576000610feb84610a3c565b90506001600160a01b038316158015906110175750826001600160a01b0316816001600160a01b031614155b801561102a575061102881846109ab565b155b156110535760405163a9fbf51f60e01b81526001600160a01b038416600482015260240161042b565b811561109b5783856001600160a01b0316826001600160a01b03167f8c5be1e5ebec7d5bd14f71427d1e84f3dd0314c0f7b2291e5b200ac8c7c3b92560405160405180910390a45b505b5050600090815260046020526040902080546001600160a01b0319166001600160a01b0392909216919091179055565b6110d88383836113b1565b610861576001600160a01b03831661110657604051637e27328960e01b81526004810182905260240161042b565b60405163177e802f60e01b81526001600160a01b03831660048201526024810182905260440161042b565b6060600061113e83611414565b600101905060008167ffffffffffffffff81111561115e5761115e6116bb565b6040519080825280601f01601f191660200182016040528015611188576020820181803683370190505b5090508181016020015b600019016f181899199a1a9b1b9c1cb0b131b232b360811b600a86061a8153600a850494508461119257509392505050565b60608260006111d4846002611b22565b6111df906002611b39565b67ffffffffffffffff8111156111f7576111f76116bb565b6040519080825280601f01601f191660200182016040528015611221576020820181803683370190505b509050600360fc1b8160008151811061123c5761123c611b4c565b60200101906001600160f81b031916908160001a905350600f60fb1b8160018151811061126b5761126b611b4c565b60200101906001600160f81b031916908160001a905350600061128f856002611b22565b61129a906001611b39565b90505b6001811115611312576f181899199a1a9b1b9c1cb0b131b232b360811b83600f16601081106112ce576112ce611b4c565b1a60f81b8282815181106112e4576112e4611b4c565b60200101906001600160f81b031916908160001a90535060049290921c9161130b81611b62565b905061129d565b508115610f6f5760405163e22e27eb60e01b8152600481018690526024810185905260440161042b565b606061134782610a3c565b50600061135f60408051602081019091526000815290565b9050600081511161137f57604051806020016040528060008152506113aa565b8061138984611131565b60405160200161139a929190611af3565b6040516020818303038152906040525b9392505050565b60006001600160a01b03831615801590610f6f5750826001600160a01b0316846001600160a01b031614806113eb57506113eb84846109ab565b80610f6f5750506000908152600460205260409020546001600160a01b03908116911614919050565b60008072184f03e93ff9f4daa797ed6e38ed64bf6a1f0160401b83106114535772184f03e93ff9f4daa797ed6e38ed64bf6a1f0160401b830492506040015b6d04ee2d6d415b85acef8100000000831061147f576d04ee2d6d415b85acef8100000000830492506020015b662386f26fc10000831061149d57662386f26fc10000830492506010015b6305f5e10083106114b5576305f5e100830492506008015b61271083106114c957612710830492506004015b606483106114db576064830492506002015b600a83106103355760010192915050565b6001600160e01b031981168114610a1457600080fd5b60006020828403121561151457600080fd5b81356113aa816114ec565b60005b8381101561153a578181015183820152602001611522565b50506000910152565b6000815180845261155b81602086016020860161151f565b601f01601f19169290920160200192915050565b6020815260006113aa6020830184611543565b60006020828403121561159457600080fd5b5035919050565b80356001600160a01b03811681146115b257600080fd5b919050565b600080604083850312156115ca57600080fd5b6115d38361159b565b946020939093013593505050565b6000806000606084860312156115f657600080fd5b6115ff8461159b565b925061160d6020850161159b565b929592945050506040919091013590565b85815284602082015260a06040820152600061163d60a0830186611543565b828103606084015261164f8186611543565b91505082151560808301529695505050505050565b60006020828403121561167657600080fd5b6113aa8261159b565b6000806040838503121561169257600080fd5b61169b8361159b565b9150602083013580151581146116b057600080fd5b809150509250929050565b634e487b7160e01b600052604160045260246000fd5b60008067ffffffffffffffff8411156116ec576116ec6116bb565b50604051601f19601f85018116603f0116810181811067ffffffffffffffff8211171561171b5761171b6116bb565b60405283815290508082840185101561173357600080fd5b83836020830137600060208583010152509392505050565b6000806040838503121561175e57600080fd5b82359150602083013567ffffffffffffffff81111561177c57600080fd5b8301601f8101851361178d57600080fd5b61179c858235602084016116d1565b9150509250929050565b600080600080608085870312156117bc57600080fd5b6117c58561159b565b93506117d36020860161159b565b925060408501359150606085013567ffffffffffffffff8111156117f657600080fd5b8501601f8101871361180757600080fd5b611816878235602084016116d1565b91505092959194509250565b6000806040838503121561183557600080fd5b61183e8361159b565b915061184c6020840161159b565b90509250929050565b600181811c9082168061186957607f821691505b60208210810361188957634e487b7160e01b600052602260045260246000fd5b50919050565b6020808252602a908201527f4f6e6c79206576656e7420636f6e74726163742063616e2063616c6c207468696040820152693990333ab731ba34b7b760b11b606082015260800190565b634e487b7160e01b600052601160045260246000fd5b600060018201611901576119016118d9565b5060010190565b601f82111561086157806000526020600020601f840160051c8101602085101561192f5750805b601f840160051c820191505b81811015610e5f576000815560010161193b565b815167ffffffffffffffff811115611969576119696116bb565b61197d816119778454611855565b84611908565b6020601f8211600181146119b157600083156119995750848201515b600019600385901b1c1916600184901b178455610e5f565b600084815260208120601f198516915b828110156119e157878501518255602094850194600190920191016119c1565b50848210156119ff5786840151600019600387901b60f8161c191681555b50505050600190811b01905550565b7f68747470733a2f2f6170692e71727365727665722e636f6d2f76312f6372656181527f74652d71722d636f64652f3f73697a653d3230307832303026646174613d0000602082015260008351611a6c81603e85016020880161151f565b602d60f81b603e918401918201528351611a8d81603f84016020880161151f565b01603f01949350505050565b6001600160a01b0385811682528416602082015260408101839052608060608201819052600090611acc90830184611543565b9695505050505050565b600060208284031215611ae857600080fd5b81516113aa816114ec565b60008351611b0581846020880161151f565b835190830190611b1981836020880161151f565b01949350505050565b8082028115828204841417610335576103356118d9565b80820180821115610335576103356118d9565b634e487b7160e01b600052603260045260246000fd5b600081611b7157611b716118d9565b50600019019056fea26469706673582212204bfd94842a27657ffe966125ac3da7be272b2b39e6667ed9d89259595627a90664736f6c634300081c0033",
  "linkReferences": {},
  "deployedLinkReferences": {}
}